:020000020000FC
:1000000000C000E00093C50007E60093C40000E1D3
:100010000093C10006E00093C2000CEF0AB903EAA6
:1000200004BD05E005BD0091C00007FFFCCF209195
:10003000C60024FD15C025FD17C026FD19C027FDEB
:100040001BC00AC0022F0F7010E1019FC001019771
:10005000002D07BD08BD0895F5DF00E00BB9E3CF23
:10006000F1DF0CE00BB9DFCFEDDF00E90BB9DBCF3F
:10007000E9DF04E10BB9D7CFE5DF08E80BB9D3CF4F
:00000001FF
