:020000020000FC
:1000000000C008E60AB9239A00E00093C50007E69D
:100010000093C40000E10093C1000EE00093C20011
:1000200001EA0093240005E00093250008EA00930C
:10003000B00004E10093B1000091C00007FF01D0BF
:10004000FBCF1091C60014FD07D015FD16D016FD8C
:1000500025D017FD34D00895012F0F7020E1029FA5
:10006000C0010197002D009327000093280000276E
:100070000093B3000093B4000895012F0F7020E1A6
:10008000029FC0010197002D0093B3000093B400BC
:10009000002700932700009328000895012F0F7078
:1000A00020E1029FC0010197002D009327000093DB
:1000B000B40000270093B300009328000895012F97
:1000C0000F7020E1029FC0010197002D0093B30043
:1000D000009328000027009327000093B4000895A0
:00000001FF
